:400000000010002011000000190400001904000080B500AF00F00AFA80B500AF194B194A12688021C9020A431A60182000F07CFA144B144A126814490A401A60134B144A63
:400040001A60144B10221A60134B20221A60134B802212061A600B4B00221A60104B114A1A60114B114A1A60114B1900092000F04DFB092000F0C4FB0E4B00221A60C04653
:40008000BD4680BD00010B40FFFFFBFF04010B4006000080080202400C02024008010B40000002400E0000804000024010000080F90900000C020B4080B582B000AF72B67B
:4000C000FB1D00221A7022E0FB1D1A7813005B009B185B002B4A9B183B603B681A78597809020A43997809040A43DB781B06134318003B681A795B791B0213439BB21900C3
:4001000000F074F9FB1D1A78FB1D01321A70FB1D1B78012BD8D91C4B992212041A601B4BEE2212021A601A4BEE221A60194B992212041A60184B992212041A60174A174B96
:400140001B78DBB206210B43DBB21370144B20221A60144BC42292021A60134B20221A60124BD82212011A60114B03221A60114B24221A60FFF750FF00F048F9C046BD46D8
:4001800002B080BDE4190000000001400C0001401000014000500F4030500F4000700F4000000440080004401800044008030440000404400804044010B5064C2378002B97
:4001C00007D1054B002B02D0044800E000BF0123237010BD4801002000000000C0190000084B10B5002B03D00749084800E000BF07480368002B00D110BD064B002BFBD00A
:400200009847F9E7000000004C010020C0190000C80000200000000090B589B000AF62B600F07AFC00F0A8FF1F23FB1800221A701F23FC18052000F027F8030023701F232C
:40024000FB181B7839000A22180001F06AFB0C4B180001F03FF83B00180001F03BF8094B180001F037F80A2000F0A6FF0D2000F0A3FFFA239B00180000F0FAFAD8E7C04674
:40028000C4190000DC19000080B588B000AF0200FB1D1A701023FB1800221A701823FB1800221A8010237B610023FB611A23FB1800221A700C23FB1800221A801023FB18E2
:4002C000FA1D12781A701023F91802230122182000F00AFDC04600F051FE020002231340F9D00C23F91801230222182000F090FDC04600F043FE020001231340F9D000F0EA
:4003000023FE35E01B23FB181B22BA1812781A701A23FB181A22BA1812781A70FB69002B02D0012B12D023E01B23FB180C22B918FA698A1812781A70FB690133FB611A2395
:40034000FB181A22BA1812781A7011E01A23FB180C22B918FA698A1812781A70FB690133FB611B23FB181B22BA1812781A70C046FB69022BC6D10023FB611B23FB181B224C
:40038000BA1812781F210A401A701B23FB181B781022134017D01B23FB181B22BA1812780F210A401A701B23FB181B781B01DAB21A23FB181B781B09DBB2D318DAB2FB1DE0
:4003C00052421A700CE01B23FB181B781B01D9B21A23FB181B781B09DAB2FB1D8A181A70FB1D1B781800BD4608B080BD80B582B000AF786039603A687B680021180001F0A0
:400400009DFAC046BD4602B080BDC04680B500AFC046BD4680BDC04680B500AF01F03EFA03001B680C2B00D1FEE7FEE780B586B000AF224B7B61224B3B61204B7B6135E0CA
:400440003B691B68FB603B695B68BB603B699B683B6000237B600CE0FB681A68BB681A60BB680433BB60FB680433FB607B6804337B607A683B689A42EED13B69DB683B60C9
:4004800000237B6008E0BB6800221A60BB680433BB607B6804337B607A683B689A42F2D13B6910333B617B69013B7B617B69002BC6D101F0F9F9FFF7AFFEFEE70100000078
:4004C0006C1A000080B582B000AF00237B600FE07B68032B04D8104B7A689200D35800E00E4B0F4A796889008B507B6801337B607B682F2BECD9FFF7DFFD0A4B00221A60FE
:400500008023DB058022D205126801210A431A60C046BD4602B080BD000000001904000000000020C000002090B585B000AF78600C23FC1800F0F6FE030023707B68022B79
:4005400000D8AFE07B68302B00D9ABE05C4B1B78DBB21A007B689A420AD35A4A0F23FB1812781A70584A0E23FB1812781A703FE0564B1B78DBB21A007B689A420AD3544ACA
:400580000F23FB1812781A70524A0E23FB1812781A702DE0504B1B78DBB21A007B689A420AD34E4A0F23FB1812781A704C4A0E23FB1812781A701BE04A4B1B78DBB21A00C7
:4005C0007B689A420AD3484A0F23FB1812781A70464A0E23FB1812781A7009E0444A0F23FB1812781A70434A0E23FB1812781A707B68DA1E0B23FB183F498A5C1A700B2395
:40060000FB181B782F2B0DD97B682A2B0AD93B4B19221A60052000F07BFE0D23FB1819221A7007E0354B1B68DAB20D23FB183F210A401A700B23FA180D23FB1812781B785B
:400640009A4208D22D4B7A68033A2B498A5C1A60052000F05DFE2A4B7A6826498C4662441278D2B21A60274B0F22BA1812781A60254B0E22BA1812781A60052000F01EF908
:400680000B23FA180D23FB1812781B789A420CD91A4B7A68033A18498A5C1A60052000F037FE02E0002000F0D7F80C23FB181B78180000F03BFEC046BD4605B090BDC04662
:4006C000C0F1FF0FC1F1FF0FC2F1FF0FC3F1FF0FC4F1FF0FC5F1FF0FC6F1FF0FC7F1FF0FC8F1FF0FC9F1FF0FCAF1FF0FCBF1FF0FCCF1FF0FCDF1FF0FF01900002CFF0B40AE
:4007000028FF0B401CFF0B4020FF0B4080B584B000AF02003960FB1D1A7080239B05FB60FB1D1B781F2B02D9002000F095F8FB1D1B7810339B00FA68D3181B68BB60FB1D8B
:400740001B7810339B00FA68D3183A681A60BB681800BD4604B080BD90B587B000AF0200FB1D1A70BB1D0A1C1A70BB1D1B78032B02D9002000F070F8FB1D1B781F2B02D95D
:40078000002000F069F8FB1D1B7803221340DB0006337B611323FC1800F0C4FD03002370FB1D1B789B08DBB29B00144A944663441B68FB6003227B699A401300DA43FB687B
:4007C0001340FB60BB1D1A787B699A401300FA681343FB60FB1D1B789B08DBB29B00074A94466344FA681A601323FB181B78180000F09CFDC046BD4607B090BD00E400E08B
:4008000080B582B000AF0200FB1D1A70064BFA1D12781F210A40012191400A001A60C046BD4602B080BDC04600E100E080B582B000AF0200FB1D1A70064BFA1D12781F2160
:400840000A40012191400A001A60C046BD4602B080BDC04680E100E080B582B000AF0200FB1D1A7001BEC046BD4602B080BDC04680B582B000AF786009E00D4B1B68180037
:4008800000F046FD7B680B4A944663447B607A6880231B029A42F0D8074B1B687A685343180000F035FDC046BD4602B080BDC046D80000200080FFFFD000002080B582B0D9
:4008C00000AF0200BB1D1A80BB1D1B88044A12785343180000F01CFDC046BD4602B080BDD400002090B583B000AFFC1D00F01AFD03002370074B074A1268C02109020A43AC
:400900001A60FB1D1B78180000F010FDC046BD4603B090BD00010B4080B500AF054B1A68C0231B02134001D0012300E000231800BD4680BD00010B4090B583B000AFFC1D43
:4009400000F0F0FC030023700D4B0D4A12680D490A408021C9010A431A60094B084A126808490A40802109020A431A60FB1D1B78180000F0DBFCC046BD4603B090BDC04643
:4009800000010B40FF3FFFFF90B585B000AF78600B23FC1800F0C6FC03002370FFF7BCFF031E04D00123FB60FFF7C6FF01E00023FB607B680D4A13407B600D4B0C4A126855
:4009C0000C4911407A680A431A60094B1B68FB68012B01D1FFF786FF0B23FB181B78180000F0A4FCC046BD4605B090BD0404040010020B40FBFBFBFF80B500AF344B1B682F
:400A0000042213401FD0334B1B680422134017D0314B1B6804221340DA432E4B1B681A402C4B1A602C4B1B68042293431A002A4B1A602A4B1B68002B02D0284B1B68984748
:400A40000420FFF7A1FF224B1A688023DB00134022D0204B1A688023DB00134017D01E4B1A688023DB001340DA431A4B1B681A40184B1A60184B1B68194A1A40164B1A60EF
:400A8000164B5B68002B02D0144B5B6898478023DB001800FFF778FF0D4B1A688023DB02134011D00B4B1A688023DB02134006D00A4B9B68002B02D0084B9B6898478023D5
:400AC000DB021800FFF760FFC046BD4680BDC04610020B40E00000206C01002070010020FFFBFFFF80B500AF00F036F8C046BD4680BDC04680B500AF064B064A12688021FF
:400B000009060A431A6000F019F800F01FF8C046BD4680BD0000064080B500AF064B1B78002B04D1FFF7DEFF034B01221A70FFF7E1FFC046BD4680BD8401002080B500AF10
:400B40000A20FFF75DFEC046BD4680BD80B500AFC046BD4680BDC04680B500AF234B234A12680C210A431A60214B00221A60214B214A1A60214B224A1A60224B00221A60A3
:400B8000214B00221A60214B1D4A1A60204B00221A600A20FFF74AFE03210A20FFF7DCFD1C4B19000A20FFF7B1FD1B4B00221A601A4B00221A601A4B00221A60194B00227C
:400BC0001A60194B00221A60184B00221A60184B10221A70174B00221A80174B00221A60164B00221A60C046BD4680BD700006400000064060000640770800800003064014
:400C0000070100800403064010030640000206400402064035130000C80E0640880E0640480F0640080F0640C80F0640880F0640900100209E010020A401002098010020D0
:400C400080B500AF184B184A1268520052081A60164B00221A60164B00221A60154B154A126815490A401A60144B00221A60144B00221A60134B144A1A60144B144A1A6073
:400C8000144B154A1A60154B154A1A60154B10221A70054B044A1268802109060A431A60C046BD4680BDC04600000640680006406C00064060000640FF5CFFFF880F06404A
:400CC000C80F0640800F0640F3070000C00F0640ED0F0000400F0640FF0F0000000F0640170300009001002080B586B000AFF860B9607A603B6004237B61BB68002B20D0F3
:400D0000344B1B78DBB2102B0CD10A20FFF78EFD314B1B680122134001D0082300E000237B610EE02B4B1B78DBB2602B09D12B4B1B889BB2082293439AB2284B1A80002336
:400D40007B617B69002B3CD1224B28221A70244B00221A60234B00221A60234B7A681A60224BBA681A603B68DAB2214B1A70FB685B00FF221340FB60184B1B889BB2022229
:400D800093439AB2154B1A801A4B40221A601A4B1A4A1A601A4B1422FF321A60194B40221A603B680122134005D000F009F9164BFA681A6005E0144BFA681A60134B02224E
:400DC0001A600A20FFF71CFD7B691800BD4606B080BDC04690010020640006409E0100209401002098010020A0010020A80100209C010020800F0640000F06401703000035
:400E0000080F0640880F0640400206406800064080B586B000AFF860B9607A603B6004237B61BB68002B20D0394B1B78DBB2102B0CD10A20FFF7FAFC364B1B6801221340B5
:400E400001D0082300E000237B610EE0304B1B78DBB2602B09D1304B1B889BB2082293439AB22D4B1A8000237B617B69002B47D1274B29221A70294B00221A60284B7A680E
:400E80001A60284BBA681A603B68DAB2264B1A70FB685B00FF22134001221343FB601E4B1B889BB2012293439AB21B4B1A801F4B1F4A1A601F4B1422FF321A60184B1B685D
:400EC000072B03D81C4B04221A6009E01B4B1B4A1268802149000A431A60174B08221A603B680122134005D000F06AF8144BFA681A6005E0124BFA681A60124B02221A6065
:400F00000A20FFF77DFC7B691800BD4606B080BD90010020640006409E010020A4010020B0010020AC0100209C010020000F064017030000080F0640C80F0640600006405D
:400F4000400206406800064080B500AF0A20FFF76DFC084B00221A60074B1B889BB2012293439AB2044B1A800A20FFF749FCC046BD4680BDA40100209E01002080B582B0D9
:400F800000AF0A20FFF752FC0B4B1B889BB27B600A4B1B78DBB220221340DBB2002B03D07B68042213437B600A20FFF729FC7B681800BD4602B080BD9E0100209001002082
:400FC00080B584B000AF0A23FB1801221A80374BFB60374B1B68202213407B6008E00A23FB181B881800FFF769FCFB68013BFB6000F066F8031E02D1FB68002BEFD1FB685F
:40100000002B4ED0294BFB60002000F067F8294B284A12680F218A431A60274B264A1268520052081A607B68002B1CD0002000F055F80A20FFF742FC012000F04FF80A2099
:40104000FFF73CFC08E00A23FB181B881800FFF735FCFB68013BFB6000F066F8031E02D1FB68002BEFD1FB68002B08D0002000F035F80A20FFF722FC104B01221A600E4B7C
:401080000D4A1268802109060A431A60094B094A12680F218A430E210A431A60012000F01DF8C046BD4604B080BDC046204E00006400064010000140000006406800064051
:4010C00080B500AF044B1B68022213405B08DBB21800BD4680BDC0460404044080B584B000AF0200FB1D1A700E4B1B68DAB20F23FB1801218A431A70FB1D1B780122134026
:40110000D9B20F23FB180F22BA1812780A431A70044B0F22BA1812781A60C046BD4604B080BDC0460004044080B500AF044B1B68DBB201221340DBB21800BD4680BDC04639
:401140000404044080B500AF00F04CF8C046BD4680BDC04680B500AF064B064A1268802109060A431A6000F019F800F01DF8C046BD4680BD0000074080B500AF064B1B78EE
:40118000002B04D1FFF7DEFF034B01221A70FFF7E1FFC046BD4680BD8C01002080B500AFC046BD4680BDC04680B500AF00F078F8C046BD4680BDC04680B582B000AF7860EA
:4011C000C046064B1B680F221340082BF9D0044B7A681A60C046BD4602B080BD080207404002074080B500AF1A4B1B4A1A601B4B00221A601A4B1B4A1A601B4B1B4A1A6065
:401200001B4B07221A601B4B00221A601A4B01221A601A4B154A1A60194B00221A60194B00221A60184B00221A60184B00221A60174B00221A60174B00221A60164B0022E6
:401240001A60154B1B689AB2144B1A80C046BD4680BDC046000007400B000002400007404800074001000A00000307400700008004030740100307404400074000020740BE
:4012800004020740880E0740C80E0740480F0740080F0740C80F0740880F07408E01002080B500AF074B074A126807490A40902109040A431A60054B054A12881A60C04667
:4012C000BD4680BD00000140FFFF0FFF880F07408E01002080B584B000AF78600023FB6009E07A68FB68D3181B781800FFF764FFFB680133FB607A68FB68D3181B78002B69
:40130000EFD1C046BD4604B080BDC046000000000230800804D0C0460138FDD1C046C046C0467047EFF3108072B6704780F310887047C04680B582B000AF00233B60BE4B93
:401340001B68002B02D0BC4B1B689847BB4B1B680122134002D0BA4B00221A60B94B1B78DBB220221340DBB2002B38D0B64B1A6880235B0013400AD0B44B1B889BB2C0221A
:40138000920013439AB2B14B1A8001233B60AE4B1B68012213400AD0AC4B1B889BB29022920013439AB2A94B1A8001233B603B68002B14D0A34B1B78DBB201221340DBB2FB
:4013C000002B01D0012300E00223A04A128892B213439AB29D4B1A809A4B00221A70994B1B78DBB220221340DBB2002B00D1A2E1954B1B681022134018D0954B10221A604A
:40140000904B1B78DBB201221340DBB2002B01D0012300E002238D4A128892B213439AB28A4B1A80874B10221A708EE1854B1B78DBB208221340DBB2002B29D0824B1B6858
:40144000022213400ED0824B02221A607F4B1B889BB28822920013439AB27C4B1A8001233B6015E0774B1B78DBB201221340DBB2002B03D0734B25221A7009E0714B2422A2
:401480001A70744B1B68002B02D0734B10221A606C4B1B78DBB204221340DBB2002B00D111E1684B1B78DBB201221340DBB2002B5BD06A4B1B680822134033D0684B1A6815
:4014C000684B1B680F211940674B1B68CB18D31A7B607B68082B02D908237B601EE07B68002B1BD1614B614A126861490A401A6008237B6001233B6010E05E4B1A685A4B9A
:401500001B68D2185C4B1B68DBB21370564B1B685A1C554B1A607B68013B7B607B68002BEBD11EE04D4B1B680422134019D0514B1A684D4B1B68D2184F4B1B68DBB21370C1
:40154000494B1B685A1C484B1A60474B1A68444B1B689A4203D2494B04221A6001E001233B60474B474A1A60ADE0374B1B680222134032D0364B02221A60434B1B680F221D
:401580001A40414B196880231B020B4001D0012300E00023D2183D4B1B689A1A3B4B1A603A4B1A683A4B1A60284B1B889BB28422920013439AB2254B1A80364B354A126851
:4015C000802149020A431A60324B324A126832490A401A6001233B6075E0304B1B681022134065D013E0294B1A681A4B1B689A4214D22B4A2B4B1968244B1B68CB181B7853
:40160000DBB21360214B1B685A1C204B1A601E4B1B680F221340082BE5D100E0C0461B4B1A680C4B1B689A4202D10B4B40221A601D4B1E4A1A6046E0880100208C0E064085
:40164000880E0640900100200C0F06409E010020000F0640A0010020880F0640CC0F0640B001002008030640A401002060000640FFFEFFFFAC01002040030640680006401D
:40168000C00F0640ED0F000008020640940100209801002004020640FFFFFEFF8C0F064040020640A8010020800F0640F3070000284B1B684022134005D0274B1A68274B2D
:4016C0001A6001233B603B68002B3ED0244B244A126824490A401A60234B00221A60234B00221A60224B1B78DBB202221340DBB2002B15D01F4B1B78DBB201221340DBB20B
:40170000002B01D0092300E00A231B4A128892B213439AB2184B1A80164B60221A7014E0164B174A126820210A4001D0182200E010221A6009E00F4B1B78DBB210221340EB
:40174000DBB2002B01D1FFF77BFAC046BD4602B080BDC0468C0F0640940100209801002060000640FFFEFFFFC80F0640880F06409C010020900100209E01002068000640B1
:4017800064000640002243088B4274D303098B425FD3030A8B4244D3030B8B4228D3030C8B420DD3FF22090212BA030C8B4202D31212090265D0030B8B4219D300E0090AA9
:4017C000C30B8B4201D3CB03C01A5241830B8B4201D38B03C01A5241430B8B4201D34B03C01A5241030B8B4201D30B03C01A5241C30A8B4201D3CB02C01A5241830A8B423F
:4018000001D38B02C01A5241430A8B4201D34B02C01A5241030A8B4201D30B02C01A5241CDD2C3098B4201D3CB01C01A524183098B4201D38B01C01A524143098B4201D3B2
:401840004B01C01A524103098B4201D30B01C01A5241C3088B4201D3CB00C01A524183088B4201D38B00C01A524143088B4201D34B00C01A5241411A00D2014652411046C0
:401880007047FFE701B5002000F006F802BDC0460029F7D076E770477047C046014B18687047C046440100200E4B70B500251E000D4CE41AA410A54204D0AB00F3589847F7
:4018C0000135F8E700F0C0F8084B00251E00084CE41AA410A54204D0AB00F35898470135F8E770BD541A0000541A0000541A00005C1A0000931E10B50C00222B02D9002033
:4019000008700DE00A2A06D1002804DA2D2340420B70012100E00021611800F017F8200010BD10B5FFF7E6FF10BD002310B59A4203D0CC5CC4540133F9E710BD030082189A
:40194000934202D019700133FAE77047F0B58FB0170006000C002522184904A8FFF7E5FF0020BB1E0500222B01D9207023E06B1C0293E31801933000013B39000393FFF79C
:4019800087FF04AB5B5C039A300013703900FFF7F9FE061E01D0029DE9E7019B187023001A1B954206DD1A78615D197062550133013DF5E720000FB0F0BDC046201A000081
:4019C0000000000054656D7065726174757572204D435039383038203A2000002067726164656E0000300F40000400400F400004030405060708090A0B0C0E0F10111213A1
:401A00001415161718191B1C1D1E1F2021222325262728292A2B2E2F3031323334354300303132333435363738396162636465666768696A6B6C6D6E6F70717273747576D7
:401A40007778797A00000000F8B5C046F8BC08BC9E467047E1010000C5040000F8B5C046F8BC08BC9E467047B9010000801A0000C800002080000000700000000000000021
:401A80000000000000366E01C05D0000180000000000E02E010000000404040000000000000000000000000000000000000000000000000000000000000000001E1A0000F9
:401AC000000000000000000000000000000000000000000000000000000000000000000000000000000000000000000000000000000000000000000000000000E4000020E2
:401B000000000000000000000000000000000000000000000000000000000000000000000000000000000000000000000000000000000000000000000000000000000000A5
:401B40000000000000000000000000000000000000000000000000000000000000000000000000000000000000000000000000000000000000000000000000000000000065
:401B80000000000000000000000000000000000000000000000000000000000000000000000000000000000000000000000000000000000000000000000000000000000025
:401BC00000000000000000000000000000000000000000000000000000000000000000000000000000000000000000000000000000000000000000000000000000000000E5
:0200000490303A
:02000000A3015A
:0200000490402A
:200000000000000000000000000000000000000000000000000000000000000000000000E0
:0200000490501A
:0C000000000204C81193110104D0B49454
:0200000490600A
:0100000001FE
:00000001FF